:020000040800F2
:1000000000000320B1010008B7010008BB0100088F
:100010002D020008310200087902000800000000EB
:10002000000000000000000000000000C102000805
:10003000C502000800000000C902000821060008EF
:10004000AD010008AD010008AD010008AD010008D8
:10005000AD010008AD010008AD010008AD010008C8
:10006000AD010008AD010008AD010008AD010008B8
:10007000AD010008AD010008AD010008AD010008A8
:10008000AD010008AD010008AD010008AD01000898
:10009000AD010008AD010008AD010008AD01000888
:1000A000AD010008AD010008AD010008AD01000878
:1000B000AD010008AD010008AD010008AD01000868
:1000C000AD010008AD010008AD010008AD01000858
:1000D000AD010008AD010008AD010008AD01000848
:1000E000AD010008AD010008AD010008AD01000838
:1000F000AD010008AD010008AD010008AD01000828
:10010000AD010008AD010008AD010008AD01000817
:10011000AD010008AD010008AD010008AD01000807
:10012000AD010008AD010008AD010008AD010008F7
:10013000AD010008AD010008AD010008AD010008E7
:10014000AD010008AD010008AD010008AD010008D7
:10015000AD010008AD010008AD010008AD010008C7
:10016000AD010008AD010008AD010008AD010008B7
:10017000AD010008AD010008AD010008000000005D
:10018000AD010008AD010008AD010008AD01000897
:10019000AD010008AD010008AD010008AD01000887
:1001A000AD010008AD010008AD01000800BEFEE78A
:1001B00008B500F093F800BEFEE71EF0040F0CBF78
:1001C000EFF30880EFF309807146414A10472DE9AB
:1001D000F04182B004460D46124B5F6BD3F8388075
:1001E0009E6A1B6B13F0020F03D00E4BDB6A002BD1
:1001F0000BDB0D4800F03EFB009543463A46314686
:10020000204600F06BFA00BEFEE74BF6AB6100F053
:10021000DFFA0028EDD0034B4FF00042DA6202B063
:10022000BDE8F08100ED00E09C24000800BEFEE780
:100230001EF0040F0CBFEFF30880EFF30980714646
:10024000244A10472DE9F04182B004460D46084B80
:100250005F6BD3F838809E6A064800F00BFB009570
:1002600043463A463146204600F038FA00BEFEE7E3
:1002700000ED00E0AC2400081EF0040F0CBFEFF30B
:100280000880EFF309807146134A10472DE9F041C9
:1002900082B004460D46084B5F6BD3F838809E6AE7
:1002A000064800F0E7FA009543463A4631462046B4
:1002B00000F014FA00BEFEE700ED00E0B8240008EC
:1002C00000BEFEE700BEFEE700BEFEE7704700008E
:1002D000CF010008450200088D02000800B583B078
:1002E00000F086FA384B394A1360394A13603949AD
:1002F00006E052F8041B43F8041B9842F9D8614603
:10030000354B994205D20A684B6801F10C0C88689C
:10031000F3E72E4B1A68314B9A4200D0FEE72C4B84
:100320001A682F4B9A42F9D1274B2E4A13602E4A56
:1003300013602E4A00E002462D4B9A4209D2104625
:1003400050F8083B51689942F5D9002243F8042B34
:10035000F9E7244B1B6813B9234B1B6803B1FEE775
:1003600000F0BEF8694601A800F0D2FA214C224BF9
:10037000E41AA410002504E01F4B53F825309847D9
:100380000135AC42F8DC1D4C1D4BE41AA4100025CD
:1003900004E01B4B53F8253098470135AC42F8DC9C
:1003A0000099019800F0DEF80546164C164BE41A49
:1003B000A41004E0013C144B53F824309847002C5F
:1003C000F8DC284600F080FABABADECA0000002045
:1003D0007C0000200C040008240400087856341225
:1003E0003254769880000020240100202404000864
:1003F00034040008340400083404000834040008FD
:0C04000034040008340400083404000830
:10040C009825000800000020800000209825000896
:10041C0000000010000000108000002028010020C7
:08042C000000001000000010A8
:1004400030B595B000240194224B1A6C42F08052D2
:100450001A641B6C03F080530193019B02941E4BA2
:100460001A6842F440421A601B6803F44043029346
:10047000029B012308934FF4803309934FF48003C8
:100480000F93082310934FF4A8731193022512952C
:10049000072313930E9508A800F0D6FC0F230393AF
:1004A000049505944FF4A05306934FF4805307939B
:1004B000052103A800F0AAFF01F0B6F8074BA3FB43
:1004C0000030800900F0E2FA042000F0F3FA15B0E1
:1004D00030BD00BF0038024000700040D34D6210B4
:1004E00008B500F043FAFFF7ABFF00F0A7F808BD2E
:1004F00008B50A460146024800F0BCF9FEE700BF15
:100500000823000808B501224FF48051014800F08B
:100510007FFC08BD000C024008B500224FF480515A
:10052000014800F075FC08BD000C024000B587B022
:100530000A4A136B43F0080313634FF4805301938B
:100540000123029302220492039301A9044800F0BC
:10055000CFFAFFF7E1FF07B05DF804FB0038024077
:10056000000C024010B5114800F09EF9104B1968BC
:10057000104800F07FF900F023F8FFF7D7FF0024C0
:100580000DE04FF47A7000F037F8FFF7C5FFFA205E
:1005900000F032F801342146074800F06BF9FFF70C
:1005A000B1FF002CEDD040F2EE20ECE7382300083C
:1005B000040000204C23000864230008704700005A
:1005C0000A4B1B680A4AA2FB03239B09013BB3F1B8
:1005D000807F0AD24FF0E0225361064BF02183F86E
:1005E0002310002393610723136170470400002048
:1005F000D34D621000ED00E0034B1860024B1B6806
:10060000002BFBD1704700BF84000020034B1B6808
:100610001BB1024A1368013B13607047840000203D
:1006200008B500F0BDF9FFF7F1FF08BD024B4FF030
:1006300000629A60704700BF00ED00E0224B9B68AB
:1006400003F00C03042B14D0082B16D01BB11F4B46
:100650001F4A1A6002E01D4B1D4A1A601A4B9B6824
:10066000C3F303131B4AD15C184A1368CB401360D1
:100670007047164B184A1A60F0E7134B59685A68CE
:1006800002F03F0211F4800F13D0134BB3FBF2F3CF
:100690000D4A5268C2F3881202FB03F30A4A5268F9
:1006A000C2F3014201325200B3FBF2F3074A136076
:1006B000D4E7074BB3FBF2F3034A5268C2F3881244
:1006C00002FB03F3EAE700BF003802400400002009
:1006D0000024F4007023000800127A00F8B50446E4
:1006E0000D4617461E46274800F0C4F821682648E4
:1006F00000F0C0F86168254800F0BCF8A168244803
:1007000000F0B8F8E168234800F0B4F82169224805
:1007100000F0B0F86169214800F0ACF8A169204808
:1007200000F0A8F8E1691F4800F0A4F81E4800F0A6
:10073000A1F829461D4800F09DF81D4CE16A1D48AE
:1007400000F098F8216B1C4800F094F8E16B1B480E
:1007500000F090F815F0800F0AD115F4004F0CD17D
:10076000174800F087F80699164800F083F8F8BD9E
:100770003946154800F07EF8EFE73146134800F09F
:1007800079F8EDE78023000890230008A0230008F3
:10079000B0230008C0230008D0230008E02300088D
:1007A000F023000800240008102400081C2400087E
:1007B00000ED00E02C2400083C2400084C24000834
:1007C0007C240008842400085C2400086C240008B1
:1007D00083691A888A4201D0002070470268033A70
:1007E000012A01D90020704702338361012070473C
:1007F00008B5FFF71BFF024A024B9A6008BD00BF15
:100800000000000800ED00E02DE9F04385B004464B
:100810000F4643563BBB042528462146ABBE044643
:10082000384605B0BDE8F08314F901CB03F110029E
:100830006A4402F810CC0133AB42F5D310336B4459
:10084000002203F8102C4FF00408E94640464946C0
:10085000ABBE8046761B002EE2D03546102E28BF58
:1008600010250023E8E70E46F5E708B5FFF7CCFFB3
:1008700008BD00000FB400B583B004AB53F8042BDF
:1008800001938021074801F091F8002804DC03B0AF
:100890005DF804EB04B0704701460248FFF7E5FF3E
:1008A000F5E700BF8800002010B5044601F04AF8C3
:1008B00001462046FFF7D9FF01210248FFF7D5FF87
:1008C00010BD00BF18240008FEE7000008B503466D
:1008D0000C4A12685AB10B4A1068033323F0030321
:1008E0000344094A934206D8064A136008BD054AE4
:1008F00006491160EFE701F01FF80C2303604FF089
:10090000FF30F3E70801002000FC0220280100204E
:1009100001230360014B0B60704700BF08000020FB
:1009200010B504460E4B18784FF47A73B3FBF0F30E
:100930000C4A1068B0FBF3F000F0A8F868B90F2C6F
:1009400001D901200AE0002221464FF0FF3000F0DB
:1009500057F8054B1C60002000E0012010BD00BFCF
:1009600010000020040000201400002008B50B4BEC
:100970001A6842F400721A601A6842F480621A60BF
:100980001A6842F480721A60032000F01BF80F20EE
:10099000FFF7C6FFFFF712FE002008BD003C024033
:1009A000034A1168034B1B780B441360704700BF68
:1009B0001401002010000020014B1868704700BF90
:1009C0001401002010B50446C31E042B0FD80A4A98
:1009D000D36823F4E0631B041B0C240204F4E064DA
:1009E000234343F0BF6343F40033D36010BD92212F
:1009F0000248FFF77DFDEAE700ED00E0C8240008AB
:100A000070B505460C4616460F2A25D80F2C28D857
:100A10001B4BDB68C3F30223C3F10701042928BF82
:100A200004211A1D062A21D9033B4FF0FF3202FA96
:100A300001F124EA01049C4002FA03F326EA0306CA
:100A40003443002D14DB2401E4B205F1604505F5C3
:100A5000614585F8004370BDAA210A48FFF748FDAB
:100A6000D4E7AB210748FFF743FDD1E70023DCE7DC
:100A700005F00F052401E4B2034B5C55EBE700BF22
:100A800000ED00E0C824000814ED00E00138B0F1EA
:100A9000807F0BD24FF0E0235861054AF02182F8A5
:100AA00023100020986107221A61704701207047C7
:100AB00000ED00E010B50446042800D040B9042C35
:100AC0000CD04FF0E022136923F00403136110BD32
:100AD00040F2C9110548FFF70BFDF0E74FF0E022A7
:100AE000136943F004031361F1E700BFC824000851
:100AF0002DE9F04383B007460E463B4B98422BD07E
:100B000003F58063984227D003F58063984223D091
:100B100003F5806398421FD003F5806398421BD091
:100B200003F58063984217D003F58063984213D091
:100B300003F5806398420FD003F5806398420BD091
:100B400003F58063984207D003F58063984203D091
:100B5000B3212648FFF7CCFC33689AB212B11B0CC4
:100B60001B041BB1B4212148FFF7C2FC7368012BA1
:100B70001ED9112B1CD0022B1AD0122B18D01C4AB4
:100B8000934215D002F58012934211D002F58012E3
:100B900093420DD0A2F5F812934209D002F58012CB
:100BA000934205D002F58012934201D0032B04D169
:100BB000B368022B06D8002452E0B5210B48FFF79A
:100BC00097FCF5E7B6210948FFF792FCF3E7C82147
:100BD0000648FFF78DFC59E0E0210448FFF788FC48
:100BE00099E0092307E000BF00000240FC24000850
:100BF0000000111000238B4003430232804941F86A
:100C00002230804B1A686FEA080322EA08017068F4
:100C100010F4803F01D048EA02017A4A116052681C
:100C200003EA0201706810F4003F01D048EA0201B3
:100C3000744A5160926803EA0201706810F4801FE0
:100C400001D048EA02016F4A9160D268134071688E
:100C500011F4001F01D048EA02036A4AD36001344C
:100C60000F2C00F2C9800125A540336803EA05086E
:100C700035EA0303F3D173685A1E012A03D9112BF5
:100C800001D0122B15D1F368032BA0D8BA686100EC
:100C900003238B4022EA0302F3688B401343BB60BB
:100CA0007A6822EA05027368C3F30015A54015436C
:100CB0007D60FA6865000323AB406FEA030922EA0E
:100CC0000302B368AB401343FB607368022B01D08F
:100CD000122B30D13369F3B1092B1CD0012B1AD060
:100CE000022B18D0032B16D0042B14D0052B12D0B6
:100CF000062B10D0072B0ED0082B0CD00A2B0AD0B5
:100D00000B2B08D00C2B06D00D2B04D00F2B02D0B0
:100D10000E2B7FF461AFE208083257F8220004F08E
:100D2000070399000F238B4020EA030033698B40AF
:100D3000034347F822303B6809EA0309736803F06C
:100D40000303AB4043EA09033B60736813F0805F21
:100D500085D0002301932C4B5A6C42F480425A6494
:100D60005B6C03F480430193019BA208911C244B0C
:100D700053F8210004F0030399000F238B4020EA6D
:100D80000300224B9F423FF435AF03F580639F423F
:100D900022D003F580639F4220D003F580639F42F9
:100DA0001ED003F580639F421CD003F580639F42F1
:100DB0001AD003F580639F4218D003F580639F42E9
:100DC00016D003F580639F4214D003F580639F42E1
:100DD0003FF407AF0A230EE701230CE702230AE7DB
:100DE000032308E7042306E7052304E7062302E7B5
:100DF000072300E70823FEE603B0BDE8F08300BF49
:100E000000380140003C0140003802400000024030
:100E100070B5054614460E4621B1012C08D86CB1B8
:100E2000AE6170BD40F29F110648FFF761FBF4E729
:100E30004FF4D0710348FFF75BFBF0E73604AE6177
:100E4000EFE700BFFC240008002800F0588270B5CE
:100E500082B0044603680F2B39D8236813F0010FC2
:100E60004DD063682BB1B3F5803F02D0B3F5A02F0E
:100E700032D1804B9B6803F00C03042B36D07D4BA2
:100E80009B6803F00C03082B2BD06368B3F5803FFD
:100E90005FD0B3F5A02F62D0764B1A6822F480326F
:100EA0001A601A6822F480221A606368002B60D0EE
:100EB000FFF782FD05466F4B1B6813F4003F1ED100
:100EC000FFF77AFD401B6428F5D903201EE2E821D4
:100ED0006948FFF70DFBC0E7ED216748FFF708FB06
:100EE000C7E7644B5B6813F4800FCED0614B1B687F
:100EF00013F4003F03D06368002B00F002822368E4
:100F000013F0020F66D0E368012B41D823691F2B31
:100F100044D8584B9B6813F00C0F4AD0554B9B6834
:100F200003F00C03082B3FD0E368002B77D0534B22
:100F300001221A60FFF740FD05464E4B1B6813F077
:100F4000020F63D1FFF738FD401B0228F5D90320BB
:100F5000DCE1484A136843F480331360A5E7454B4E
:100F60001A6842F480221A601A6842F480321A60C9
:100F70009BE7FFF721FD05463E4B1B6813F4003F3E
:100F8000BDD0FFF719FD401B6428F5D90320BDE152
:100F900040F21F113848FFF7ABFAB7E74FF49071F2
:100FA0003548FFF7A5FAB4E7324B5B6813F4800FBE
:100FB000BAD1304B1B6813F0020F03D0E368012B4A
:100FC00040F0A1812B4A136823F0F803216943EA1A
:100FD000C1031360236813F0080F51D06369012B1C
:100FE0002FD863699BB3254B0122C3F8802EFFF7EE
:100FF000E3FC05461F4B5B6F13F0020F40D1FFF778
:10100000DBFC401B0228F5D903207FE1194A136855
:1010100023F0F803216943EAC1031360DAE7174BB1
:1010200000221A60FFF7C8FC0546124B1B6813F03C
:10103000020FCFD0FFF7C0FC401B0228F5D90320D8
:1010400064E14FF4B0710C48FFF752FAC9E70B4B5B
:101050000022C3F8802EFFF7AFFC0546054B5B6FFF
:1010600013F0020F0CD0FFF7A7FC401B0228F5D9A4
:1010700003204BE1003802402C25000800004742C5
:10108000236813F0040F7CD0A368012B01D9052B32
:1010900038D1A34B1B6C13F0805F39D1002301932F
:1010A0009F4B1A6C42F080521A641B6C03F0805301
:1010B0000193019B01259B4B1B6813F4807F29D072
:1010C000A368012B3AD0052B3ED0954B1A6F22F026
:1010D00001021A671A6F22F004021A67A368002B34
:1010E0003CD0FFF769FC06468D4B1B6F13F0020FD7
:1010F00045D1FFF761FC801B41F288339842F3D958
:10110000032003E14FF4C6718748FFF7F1F9C0E708
:101110000025D0E7834A136843F480731360FFF718
:101120004BFC06467F4B1B6813F4807FC8D1FFF74A
:1011300043FC801B0228F5D90320E7E0784A136FAF
:1011400043F001031367C9E7754B1A6F42F00402BD
:101150001A671A6F42F001021A67BFE7FFF72CFC0B
:1011600006466F4B1B6F13F0020F08D0FFF724FCED
:10117000801B41F288339842F3D90320C6E0002D4A
:101180003BD1A369022B3ED8A369002B00F0BD80A0
:10119000634A926802F00C02082A00F09080022B49
:1011A00079D1E36913B1B3F5800F32D1236A3F2BB4
:1011B00035D8636A323BB3F5BF7F36D8A36A022BBA
:1011C00005D0042B03D0062B01D0082B33D1E36AC2
:1011D000023B0D2B35D8554B00221A66FFF7ECFB6E
:1011E00005464F4B1B6813F0007F30D0FFF7E4FB40
:1011F000401B0228F5D9032088E0494A136C23F0EC
:1012000080531364BDE740F2CF114748FFF770F9F0
:10121000BAE74FF4EC714448FFF76AF9C6E740F2C9
:10122000D9114148FFF764F9C3E74FF4ED713E4827
:10123000FFF75EF9C2E740F2DB113B48FFF758F9D0
:10124000C5E74FF4EE713848FFF752F9C3E7E36999
:10125000226A1343626A43EA8213A26A5208013A7D
:1012600043EA0243E26A43EA02632D4A53602F4B8A
:1012700001221A66FFF7A0FB0446294B1B6813F0F6
:10128000007F06D1FFF798FB001B0228F5D9032049
:101290003CE000203AE0254B00221A66FFF78CFB69
:1012A00004461F4B1B6813F0007F06D0FFF784FB3A
:1012B000001B0228F5D9032028E0002026E0012B9E
:1012C00026D0174B5B6803F48001E269914221D17B
:1012D00003F03F02216A8A421ED1616A47F6C0725A
:1012E0001A408A421AD103F44032A16A8A421FD1BD
:1012F00003F07063E26A93421CD1002006E00120F3
:101300007047012002E0012000E0002002B070BD23
:101310000120FBE70120F9E70120F7E70120F5E7CD
:1013200000380240007000402C25000800004742B1
:101330000120EBE70120E9E708B5314B9B6803F09A
:101340000C03042B57D0082B57D12D4B5A6802F0B1
:101350003F025B6813F4800F2AD0294B5968C1F310
:10136000881C4FEA4C11B1EB0C006EEB0E0E4FEAED
:101370008E1343EA90638101091A63EB0E03DB00CD
:1013800043EA5173C90011EB0C0C43F100035902FD
:1013900000234FEA4C2041EADC5100F04BF9184B96
:1013A0005B68C3F3014301335B00B0FBF3F025E05E
:1013B000134B5968C1F3881C4FEA4C11B1EB0C0078
:1013C0006EEB0E0E4FEA8E1343EA90638101091A09
:1013D00063EB0E03DB0043EA5173C90011EB0C0C05
:1013E00043F10003990200234FEA8C2041EA9C510B
:1013F00000F020F9D3E7034800E0034808BD00BF30
:101400000038024000127A000024F400002800F0A6
:10141000F78070B50D4604460368013B0E2B6BD870
:101420000F2D6FD87A4B1B6803F00F03AB4208D225
:10143000EBB2774A1370136803F00F03AB4240F02E
:10144000E180236813F0020F29D013F0040F04D0B9
:10145000704A936843F4E0539360236813F0080FD5
:1014600004D06C4A936843F460439360A3687BB1F3
:10147000802B0DD0902B0BD0A02B09D0B02B07D0F8
:10148000C02B05D0D02B03D0E02B01D0F02B3FD1C7
:10149000604A936823F0F003A1680B4393602368CC
:1014A00013F0010F4ED06368032B37D86368012B0C
:1014B0003AD09A1E012A3ED9564A126812F0020FFB
:1014C00000F0A28053498A6822F0030213438B6024
:1014D000FFF772FA06464F4B9B6803F00C036268F5
:1014E000B3EB820F2ED0FFF767FA801B41F28833EF
:1014F0009842F0D9032076E040F251214648FEF7A9
:10150000F7FF8DE740F252214348FEF7F1FF89E7EC
:1015100040F275214048FEF7EBFFB9E74FF41F7129
:101520003D48FEF7E5FFC1E73A4A126812F4003F72
:10153000C8D1012057E0374A126812F0007FC1D1AC
:10154000012050E0324B1B6803F00F03AB4207D978
:10155000EAB22F4B1A701B6803F00F03AB4255D150
:10156000236813F0040F14D0E3685BB1B3F5805F18
:1015700008D0B3F5A05F05D0B3F5C05F02D0B3F5D6
:10158000E05F31D1234A936823F4E053E1680B43D1
:101590009360236813F0080F15D023695BB1B3F58E
:1015A000805F08D0B3F5A05F05D0B3F5C05F02D06F
:1015B000B3F5E05F1ED1174A936823F460432169B5
:1015C00043EAC1039360FFF7B7FE124B9B68C3F376
:1015D0000313124AD35CD840114B1860114B1868A2
:1015E000FFF79EF9002070BD40F2BA210A48FEF7CD
:1015F0007FFFC7E740F2C1210748FEF779FFDAE72E
:10160000012070470120EEE70120ECE70120EAE726
:10161000003C0240003802402C25000870230008DE
:101620000400002014000020014B1868704700BF20
:101630000400002053B94AB9002908BF00281CBF84
:101640004FF0FF314FF0FF3000F074B9ADF1080CEE
:101650006DE904CE00F006F8DDF804E0DDE90223D0
:1016600004B070472DE9F047089E0D4604468846B1
:10167000002B4DD18A42944668D9B2FA82F252B117
:1016800001FA02F3C2F1200120FA01F10CFA02FC86
:1016900041EA030894404FEA1C45210CB8FBF5FED3
:1016A0001FFA8CF705FB1E8341EA03430EFB07F18B
:1016B00099420BD91CEB03030EF1FF3080F01E8121
:1016C000994240F21B81AEF1020E63445B1AA4B250
:1016D000B3FBF5F005FB103344EA034400FB07F7C6
:1016E000A7420AD91CEB040400F1FF3380F0088103
:1016F000A74240F2058164440238E41B40EA0E40F0
:1017000000211EB1D4400023C6E90043BDE8F087A4
:101710008B4208D9002E00F0EE800021C6E90005BA
:101720000846BDE8F087B3FA83F100294AD1AB42FD
:1017300002D3824200F2F980841A65EB0303012090
:101740009846002EE2D0C6E90048DFE702B9FFDE86
:10175000B2FA82F2002A40F09180A1EB0C054FEA28
:101760001C471FFA8CFE0121B5FBF7F307FB135052
:10177000250C45EA00450EFB03F0A84208D91CEBF6
:10178000050503F1FF3802D2A84200F2CB804346A0
:101790002D1AA4B2B5FBF7F007FB105544EA054437
:1017A0000EFB00FEA64508D91CEB040400F1FF3532
:1017B00002D2A64500F2BB802846A4EB0E0440EA04
:1017C00003409EE7C1F120078B4022FA07FC4CEA58
:1017D000030C20FA07F405FA01F31C43FD404FEA1D
:1017E0001C4900FA01F3B5FBF9F8200C1FFA8CFE36
:1017F00009FB185540EA054508FB0EF0A84202FA1D
:1018000001F20BD91CEB050508F1FF3A80F0888046
:10181000A84240F28580A8F1020865442D1AA4B2BE
:10182000B5FBF9F009FB105544EA054500FB0EFE37
:10183000AE4508D91CEB050500F1FF346CD2AE456E
:101840006AD90238654440EA0840A0FB0294A5EB3F
:101850000E05A542C846A64656D353D05EB1B3EB9B
:10186000080265EB0E0505FA07F722FA01F3CD40F1
:101870001F43C6E900750021BDE8F087C2F12003CF
:1018800020FA03F10CFA02FC25FA03F395400D430C
:101890004FEA1C471FFA8CFEB3FBF7F107FB113030
:1018A0002B0C43EA004301FB0EF0984204FA02F4C9
:1018B00008D91CEB030301F1FF382FD298422DD930
:1018C000023963441B1AADB2B3FBF7F007FB1033C8
:1018D00045EA034500FB0EF3AB4208D91CEB0505B6
:1018E00000F1FF3816D2AB4214D902386544ED1A24
:1018F00040EA014138E73146304607E78646E5E6EB
:101900001846FAE64B45A9D2B9EB020864EB0C0E77
:101910000138A3E74046EAE7204694E74146D1E78D
:10192000D0467BE7023B654432E7084609E764445A
:10193000023842E7704700BF014B1868704700BF8C
:1019400018000020034613F8012B002AFBD1181AB7
:101950000138704730B51446002C9BB005461A4636
:1019600005DA8B2303604FF0FF301BB030BD4FF41E
:101970000273ADF80C3014BF04F1FF332346029319
:1019800005934FF6FF7300910491ADF80E30694650
:101990001E9B00F075F8431CBCBF8B232B60002CF2
:1019A000E3D0009B00221A70DFE7000007B5009328
:1019B00013460A46014603480068FFF7CBFF03B011
:1019C0005DF804FB180000202DE9F0478E689E4268
:1019D00082460C4690461F4638D88A8912F4906F8A
:1019E00032D025680969A5EB0109656905EB450554
:1019F00005EBD57501334B446D109D4238BF1D4634
:101A0000530531D5294600F0B5FB064650B90C23E5
:101A1000CAF80030A38943F04003A3814FF0FF30A0
:101A2000BDE8F08721694A4600F012FBA38923F440
:101A3000906343F08003A381266165614E44A5EB6A
:101A400009052660A5603E46BE4200D93E46206894
:101A50003246414600F00AFBA3689B1BA360236843
:101A6000334423600020DBE72A4600F0F7FB0646FC
:101A70000028E1D12169504600F012FBC7E70000C1
:101A80002DE9F04F98468B891B069DB007460D4601
:101A900014460ED50B6963B9402100F06BFB28603A
:101AA000286120B90C233B604FF0FF30D1E0402388
:101AB0006B610023099320238DF82930CDF80C8029
:101AC0003023DFF8A8818DF82A304FF00109234632
:101AD0009A4613F8012B0AB1252AF9D1BAEB040B67
:101AE0000BD05B46224629463846FFF76DFF013092
:101AF00000F0AA80099A5A4409929AF80030002B03
:101B000000F0A28000234FF0FF32CDE905230AF157
:101B1000010A049307938DF853301A935446052213
:101B200014F8011B514800F043FA049AD8B9D006C2
:101B300044BF20238DF85330110744BF2B238DF869
:101B400053309AF800302A2B15D0079A54460020BB
:101B50004FF00A0C214611F8013B303B092B4ED9BE
:101B6000B0B1079214E0A0EB080309FA03F31343A2
:101B70000493A246D2E7039B191D1B680391002B17
:101B8000BBBF5B4242F0020207930793B8BF0492C7
:101B900023782E2B0CD163782A2B35D1039B1A1D69
:101BA0001B680392002BB8BF4FF0FF33023405933C
:101BB000DFF8BCA021780322504600F0F9F940B1CB
:101BC0004023A0EB0A0003FA00F0049B0343013416
:101BD000049314F8011B27488DF82810062200F002
:101BE000E7F9002838D0244B1BBB039B073323F0B5
:101BF000070308330393099B3344099367E70CFBFE
:101C000002320C460120A5E7002301340593194652
:101C10004FF00A0C204610F8012B303A092A03D95C
:101C2000002BC5D00591C3E70CFB0121044601231D
:101C3000F0E703AB00932A46104B04A93846AFF3F4
:101C40000080421C0646D6D1AB895B063FF52CAF1F
:101C500009981DB0BDE8F08F03AB00932A46074BEF
:101C600004A9384600F07AF8EBE700BF5A250008CF
:101C7000602500086425000800000000C91900085C
:101C80002DE9F047164699468A680B69DDF82080F1
:101C90009342B8BF1346336091F8432007460C4681
:101CA0000AB1013333602368990642BF33680233B7
:101CB0003360256815F0060506D104F1190AE368BA
:101CC00032689B1AAB4226DC94F84320131E22682C
:101CD00018BF012392062BD404F14302494638462B
:101CE000C04701301ED02368E568326803F0060360
:101CF000042B08BFAD1AA36822690CBF25EAE5755D
:101D000000259342C4BF9B1AED1800261A34B54231
:101D10001AD1002008E00123524649463846C04700
:101D2000013003D14FF0FF30BDE8F0870135C6E741
:101D3000E1185A1C302081F84300224494F84510E1
:101D400082F843100233C7E701232246494638464A
:101D5000C0470130E6D00136D9E700002DE9FF4742
:101D60000F7E0C9D782F914680460C469A4601F1D5
:101D7000430207D8622F0AD8002F00F0D880582FCE
:101D800000F0A38004F1420584F842703AE0A7F124
:101D90006303152BF6D801A151F823F0F51D0008B7
:101DA000091E0008851D0008851D0008851D000806
:101DB000851D0008091E0008851D0008851D0008F6
:101DC000851D0008851D0008151F0008391E000824
:101DD000F71E0008851D0008851D0008371F000834
:101DE000851D0008391E0008851D0008851D000896
:101DF000FF1E00082B681A1D1B682A6004F14205AB
:101E000084F842300123A3E020682968060601F126
:101E100004030AD50E682B60002E03DA2D237642C8
:101E200084F843305E480A2319E00E682B6010F0F6
:101E3000400F18BF36B2EFE72B682068191D2960E4
:101E4000010601D51E6802E04606FBD51E885448EF
:101E50006F2F0CBF08230A23002184F84310656804
:101E6000A560002DA2BF216821F0040121600EB9F8
:101E7000002D4DD01546B6FBF3F103FB1167C75D8E
:101E800005F8017D3746BB420E46F4D9082B0BD12D
:101E90002368DE0708D5236961689942DEBF3023D5
:101EA00005F8013C05F1FF35521B2261CDF800A079
:101EB0004B4603AA21464046FFF7E2FE01304CD1D3
:101EC0004FF0FF3004B0BDE8F087354881F8457029
:101ED0002968236851F8046B29601D0614D5DF07B3
:101EE00044BF43F0200323601EB9236823F020037E
:101EF00023601023B0E7236843F020032360782396
:101F0000284884F84530E3E7590648BFB6B2E6E70B
:101F10001546BBE72B6826686169181D28603506E1
:101F20001B6801D5196002E07006FBD519800023FB
:101F300023611546BAE72B681A1D2A601D6862687E
:101F40000021284600F034F808B1401B6060636847
:101F50002361002384F84330A8E723692A464946D1
:101F60004046D0470130ABD023689B0713D4E068CC
:101F7000039B9842B8BF1846A4E70123324649465E
:101F80004046D04701309BD00135E36803995B1A86
:101F9000AB42F2DCEBE7002504F11906F5E700BFE0
:101FA0006B2500087C2500080000000000000000F0
:101FB00001F0FF01102A2BDB10F0070F08D010F8FA
:101FC000013B013A8B422DD010F0070F42B3F6D1FE
:101FD000F0B441EA012141EA014122F007047FF017
:101FE00000070023F0E80256083C85EA010586EA6E
:101FF000010685FA47F5A3FA87F586FA47F6A5FAAA
:1020000087F68EB9EED1F0BC01F0FF0102F00702B5
:1020100032B110F8013B013A83EA010313B1F8D160
:102020000020704701387047002D06BF3546033841
:10203000073815F0010F07D1013015F4807F02BF7A
:10204000013015F4C03F0130F0BC0138704700BFCB
:102050000A44914200F1FF3300D1704710B511F8E6
:10206000014B03F8014F9142F9D110BD884210B5E0
:1020700001EB020402D98442234607D8431EA14241
:1020800008D011F8012B03F8012FF8E702440146AC
:102090008A4200D110BD13F8014D02F8014DF7E757
:1020A00038B50546002941D051F8043C0C1F002BDF
:1020B000B8BFE41800F012F91D4A136833B9636021
:1020C00014602846BDE8384000F00EB9A34208D994
:1020D000206821188B4201BF19685B6809182160CC
:1020E000EDE71A465B680BB1A342FAD911685018A4
:1020F000A0420BD120680144501883421160E0D106
:1021000018685B68536001441160DAE702D90C2358
:102110002B60D6E7206821188B4204BF19685B68E2
:10212000636004BF091821605460CAE738BD00BF6E
:102130001801002070B50E4E0C463168054611B9E5
:1021400000F0BCF830602146284600F0B7F8431C88
:102150000AD0C41C24F00304A04207D0211A284648
:1021600000F0ACF8013001D14FF0FF34204670BDD3
:102170001C0100202DE9F041CD1C25F00305083598
:102180000C2D38BF0C25002D074601DBA94205D9CF
:102190000C233B6000263046BDE8F0812E4E00F057
:1021A0009DF833681C4634BB29463846FFF7C2FF0A
:1021B000431C04464DD134682646002E40D1236886
:1021C0003146384604EB030800F078F880453AD1F0
:1021D000216803356D1A25F0030508350C2D38BF2D
:1021E0000C2529463846FFF7A5FF01302BD0236880
:1021F0002B4423600EE02268521B1ED40B2A16D9F2
:102200006119A342256018BF5960636808BF316037
:1022100062514B60384604F10B0600F065F826F079
:102220000706231DF21AB6D09B1BA350B3E76268C2
:10223000A3420CBF32605A60ECE723466468B2E701
:1022400034467668B9E70C233B60384600F04CF81A
:10225000A1E72560DEE700BF180100202DE9F0416D
:10226000804614460E4621B9BDE8F0411146FFF7FD
:1022700081BF2AB9FFF714FF25462846BDE8F08143
:1022800000F038F88442074602D8B4EB500F12D859
:1022900021464046FFF76EFF05460028EDD0BC42C0
:1022A0002246314628BF3A46FFF7D2FE3146404625
:1022B000FFF7F6FEE1E73546DFE7000038B5064DEB
:1022C0000023044608462B60FEF700FB431C02D1A6
:1022D0002B6803B1236038BD0C010020014800F0D9
:1022E00011B800BF20010020014800F00CB800BF69
:1022F0002001002051F8043C181F002BBCBF0B58D4
:10230000C01870477047704757726F6E67207061D2
:1023100072616D65746572732076616C75653A20C3
:1023200066696C65202573206F6E206C696E652070
:1023300025640D0A0000000048656C6C6F20417236
:102340006D20576F726C6421000000005379737424
:10235000656D20636C6F636B3A20257520487A0A9F
:10236000000000005365636F6E642025750A00004D
:102370000000000000000000010203040607080935
:10238000537461636B206672616D653A0A000000E8
:10239000205230203D2020253038580A000000000F
:1023A000205231203D2020253038580A00000000FE
:1023B000205232203D2020253038580A00000000ED
:1023C000205233203D2020253038580A00000000DC
:1023D00020523132203D20253038580A00000000BC
:1023E000204C52203D2020253038580A00000000A3
:1023F000205043203D2020253038580A000000009E
:1024000020505352203D20253038580A000000004B
:102410004653522F4641523A0A0000002043465389
:1024200052203D2020253038580A000020484653CD
:1024300052203D2020253038580A000020444653C1
:1024400052203D2020253038580A000020414653B4
:1024500052203D2020253038580A0000204D4D469E
:102460004152203D20253038580A00002042464184
:1024700052203D2020253038580A00004D697363F2
:102480000A000000204C522F4558435F52455455D6
:10249000524E3D20253038580A0000005B486172DA
:1024A000644661756C745D0A000000005B427573E0
:1024B0004661756C745D0A005B55736167654661C2
:1024C000756C745D0A0000002E2E2F73797374658D
:1024D0006D2F7372632F73746D333266342D6861A0
:1024E0006C2F73746D3332663478785F68616C5F1B
:1024F000636F727465782E63000000002E2E2F73B8
:10250000797374656D2F7372632F73746D333266D4
:10251000342D68616C2F73746D3332663478785F54
:1025200068616C5F6770696F2E6300002E2E2F73D9
:10253000797374656D2F7372632F73746D333266A4
:10254000342D68616C2F73746D3332663478785F24
:1025500068616C5F7263632E6300232D302B200053
:10256000686C4C006566674546470030313233344D
:1025700035363738394142434445460030313233ED
:0D25800034353637383961626364656600B2
:08259000D4F0FF7F0100000000
:10259800785634120024F4001001002000000000D6
:1025A80001FFFFFF100000001C00002000000000D9
:1025B8000000000000000000000000000000000013
:1025C8000000000000000000000000000000000003
:1025D80000000000000000000000000000000000F3
:1025E80000000000000000000000000000000000E3
:1025F80000000000000000000000000000000000D3
:10260800000000000000000000000000325476982E
:04000005080002DD10
:00000001FF
